{
    "_format": "hh-sol-artifact-1",
    "contractName": "agDAO",
    "sourceName": "contracts/agDAO.sol",
    "abi": [
        {
            "inputs": [],
            "stateMutability": "nonpayable",
            "type": "constructor"
        },
        {
            "anonymous": false,
            "inputs": [
                {
                    "indexed": false,
                    "internalType": "uint256",
                    "name": "id",
                    "type": "uint256"
                }
            ],
            "name": "LawActivated",
            "type": "event"
        },
        {
            "anonymous": false,
            "inputs": [
                {
                    "indexed": false,
                    "internalType": "uint256",
                    "name": "id",
                    "type": "uint256"
                },
                {
                    "indexed": false,
                    "internalType": "string",
                    "name": "description",
                    "type": "string"
                }
            ],
            "name": "LawAdded",
            "type": "event"
        },
        {
            "anonymous": false,
            "inputs": [
                {
                    "indexed": false,
                    "internalType": "uint256",
                    "name": "id",
                    "type": "uint256"
                }
            ],
            "name": "LawDeactivated",
            "type": "event"
        },
        {
            "anonymous": false,
            "inputs": [
                {
                    "indexed": false,
                    "internalType": "address",
                    "name": "member",
                    "type": "address"
                }
            ],
            "name": "MemberExpelled",
            "type": "event"
        },
        {
            "anonymous": false,
            "inputs": [
                {
                    "indexed": false,
                    "internalType": "address",
                    "name": "member",
                    "type": "address"
                }
            ],
            "name": "MemberReinstated",
            "type": "event"
        },
        {
            "anonymous": false,
            "inputs": [
                {
                    "indexed": false,
                    "internalType": "uint256",
                    "name": "id",
                    "type": "uint256"
                },
                {
                    "indexed": false,
                    "internalType": "string",
                    "name": "description",
                    "type": "string"
                },
                {
                    "indexed": false,
                    "internalType": "address",
                    "name": "proposer",
                    "type": "address"
                }
            ],
            "name": "ProposalCreated",
            "type": "event"
        },
        {
            "anonymous": false,
            "inputs": [
                {
                    "indexed": false,
                    "internalType": "uint256",
                    "name": "id",
                    "type": "uint256"
                },
                {
                    "indexed": false,
                    "internalType": "address",
                    "name": "voter",
                    "type": "address"
                }
            ],
            "name": "ProposalVoted",
            "type": "event"
        },
        {
            "inputs": [
                {
                    "internalType": "uint256",
                    "name": "_lawId",
                    "type": "uint256"
                }
            ],
            "name": "activateLaw",
            "outputs": [],
            "stateMutability": "nonpayable",
            "type": "function"
        },
        {
            "inputs": [],
            "name": "admin",
            "outputs": [
                {
                    "internalType": "address",
                    "name": "",
                    "type": "address"
                }
            ],
            "stateMutability": "view",
            "type": "function"
        },
        {
            "inputs": [
                {
                    "internalType": "address",
                    "name": "",
                    "type": "address"
                }
            ],
            "name": "agCoinBalance",
            "outputs": [
                {
                    "internalType": "uint256",
                    "name": "",
                    "type": "uint256"
                }
            ],
            "stateMutability": "view",
            "type": "function"
        },
        {
            "inputs": [],
            "name": "challengeExpulsion",
            "outputs": [],
            "stateMutability": "nonpayable",
            "type": "function"
        },
        {
            "inputs": [],
            "name": "claimWhaleRole",
            "outputs": [],
            "stateMutability": "nonpayable",
            "type": "function"
        },
        {
            "inputs": [
                {
                    "internalType": "uint256",
                    "name": "_lawId",
                    "type": "uint256"
                }
            ],
            "name": "deactivateLaw",
            "outputs": [],
            "stateMutability": "nonpayable",
            "type": "function"
        },
        {
            "inputs": [
                {
                    "internalType": "address",
                    "name": "_member",
                    "type": "address"
                }
            ],
            "name": "expelMember",
            "outputs": [],
            "stateMutability": "nonpayable",
            "type": "function"
        },
        {
            "inputs": [
                {
                    "internalType": "uint256",
                    "name": "_lawId",
                    "type": "uint256"
                }
            ],
            "name": "finalizeLawActivation",
            "outputs": [],
            "stateMutability": "nonpayable",
            "type": "function"
        },
        {
            "inputs": [],
            "name": "joinAsMember",
            "outputs": [],
            "stateMutability": "nonpayable",
            "type": "function"
        },
        {
            "inputs": [
                {
                    "internalType": "uint256",
                    "name": "",
                    "type": "uint256"
                }
            ],
            "name": "laws",
            "outputs": [
                {
                    "internalType": "uint256",
                    "name": "lawId",
                    "type": "uint256"
                },
                {
                    "internalType": "bool",
                    "name": "isActive",
                    "type": "bool"
                },
                {
                    "internalType": "string",
                    "name": "description",
                    "type": "string"
                }
            ],
            "stateMutability": "view",
            "type": "function"
        },
        {
            "inputs": [
                {
                    "internalType": "address",
                    "name": "",
                    "type": "address"
                }
            ],
            "name": "members",
            "outputs": [
                {
                    "internalType": "bool",
                    "name": "",
                    "type": "bool"
                }
            ],
            "stateMutability": "view",
            "type": "function"
        },
        {
            "inputs": [],
            "name": "nextLawId",
            "outputs": [
                {
                    "internalType": "uint256",
                    "name": "",
                    "type": "uint256"
                }
            ],
            "stateMutability": "view",
            "type": "function"
        },
        {
            "inputs": [],
            "name": "nextProposalId",
            "outputs": [
                {
                    "internalType": "uint256",
                    "name": "",
                    "type": "uint256"
                }
            ],
            "stateMutability": "view",
            "type": "function"
        },
        {
            "inputs": [
                {
                    "internalType": "uint256",
                    "name": "",
                    "type": "uint256"
                }
            ],
            "name": "proposals",
            "outputs": [
                {
                    "internalType": "uint256",
                    "name": "id",
                    "type": "uint256"
                },
                {
                    "internalType": "string",
                    "name": "description",
                    "type": "string"
                },
                {
                    "internalType": "uint256",
                    "name": "voteCount",
                    "type": "uint256"
                },
                {
                    "internalType": "enum agDAO.ProposalStatus",
                    "name": "status",
                    "type": "uint8"
                },
                {
                    "internalType": "address",
                    "name": "proposer",
                    "type": "address"
                }
            ],
            "stateMutability": "view",
            "type": "function"
        },
        {
            "inputs": [
                {
                    "internalType": "string",
                    "name": "_description",
                    "type": "string"
                }
            ],
            "name": "proposeLawActivation",
            "outputs": [],
            "stateMutability": "nonpayable",
            "type": "function"
        },
        {
            "inputs": [
                {
                    "internalType": "string",
                    "name": "_description",
                    "type": "string"
                }
            ],
            "name": "proposeNewValue",
            "outputs": [],
            "stateMutability": "nonpayable",
            "type": "function"
        },
        {
            "inputs": [
                {
                    "internalType": "address",
                    "name": "_member",
                    "type": "address"
                }
            ],
            "name": "reinstateMember",
            "outputs": [],
            "stateMutability": "nonpayable",
            "type": "function"
        },
        {
            "inputs": [],
            "name": "seniorQuorum",
            "outputs": [
                {
                    "internalType": "uint256",
                    "name": "",
                    "type": "uint256"
                }
            ],
            "stateMutability": "view",
            "type": "function"
        },
        {
            "inputs": [
                {
                    "internalType": "address",
                    "name": "",
                    "type": "address"
                }
            ],
            "name": "seniors",
            "outputs": [
                {
                    "internalType": "bool",
                    "name": "",
                    "type": "bool"
                }
            ],
            "stateMutability": "view",
            "type": "function"
        },
        {
            "inputs": [
                {
                    "internalType": "address",
                    "name": "to",
                    "type": "address"
                },
                {
                    "internalType": "uint256",
                    "name": "amount",
                    "type": "uint256"
                }
            ],
            "name": "transferAgCoins",
            "outputs": [],
            "stateMutability": "nonpayable",
            "type": "function"
        },
        {
            "inputs": [
                {
                    "internalType": "uint256",
                    "name": "_proposalId",
                    "type": "uint256"
                }
            ],
            "name": "voteOnProposal",
            "outputs": [],
            "stateMutability": "nonpayable",
            "type": "function"
        },
        {
            "inputs": [],
            "name": "whaleCoinThreshold",
            "outputs": [
                {
                    "internalType": "uint256",
                    "name": "",
                    "type": "uint256"
                }
            ],
            "stateMutability": "view",
            "type": "function"
        },
        {
            "inputs": [
                {
                    "internalType": "address",
                    "name": "",
                    "type": "address"
                }
            ],
            "name": "whales",
            "outputs": [
                {
                    "internalType": "bool",
                    "name": "",
                    "type": "bool"
                }
            ],
            "stateMutability": "view",
            "type": "function"
        }
    ],
    "bytecode": "0x60806040526103e8600455600a600555348015601a57600080fd5b50600080546001600160a01b0319163317905561136b8061003c6000396000f3fe608060405234801561001057600080fd5b506004361061014d5760003560e01c80637ebdee0d116100c3578063d204ae311161007c578063d204ae31146102ef578063d5e94e3814610302578063e562b7321461030a578063f5849a441461032d578063f851a44014610335578063fc2edec51461036057600080fd5b80637ebdee0d14610278578063844c21451461029a5780638ccad311146102ad5780639834192c146102c0578063add68edc146102c9578063aea92bbf146102dc57600080fd5b806347f1d4041161011557806347f1d404146102015780634cf2480d146102145780634f4bcdd11461021d57806351f106941461023d5780635780472f1461025057806358b6f9571461026f57600080fd5b8063013cf08b1461015257806308ae4b0c1461017f578063138e6315146101b25780631545dbdf146101d55780632ab09d14146101ea575b600080fd5b610165610160366004610e1d565b610373565b604051610176959493929190610e92565b60405180910390f35b6101a261018d366004610f0e565b60036020526000908152604090205460ff1681565b6040519015158152602001610176565b6101a26101c0366004610f0e565b60026020526000908152604090205460ff1681565b6101e86101e3366004610f30565b610437565b005b6101f360075481565b604051908152602001610176565b6101e861020f366004610f70565b61051a565b6101f360055481565b6101f361022b366004610f0e565b60066020526000908152604090205481565b6101e861024b366004610e1d565b6105f7565b6101e8336000908152600360205260409020805460ff19166001179055565b6101f360045481565b61028b610286366004610e1d565b6106c9565b60405161017693929190611029565b6101e86102a8366004610f0e565b610778565b6101e86102bb366004610f70565b610871565b6101f3600a5481565b6101e86102d7366004610e1d565b6109ba565b6101e86102ea366004610e1d565b610ad3565b6101e86102fd366004610e1d565b610b96565b6101e8610c57565b6101a2610318366004610f0e565b60016020526000908152604090205460ff1681565b6101e8610cb2565b600054610348906001600160a01b031681565b6040516001600160a01b039091168152602001610176565b6101e861036e366004610f0e565b610d3e565b6008602052600090815260409020805460018201805491929161039590611053565b80601f01602080910402602001604051908101604052809291908181526020018280546103c190611053565b801561040e5780601f106103e35761010080835404028352916020019161040e565b820191906000526020600020905b8154815290600101906020018083116103f157829003601f168201915b50505050600283015460039093015491929160ff8116915061010090046001600160a01b031685565b3360009081526003602052604090205460ff1661046f5760405162461bcd60e51b81526004016104669061108d565b60405180910390fd5b336000908152600660205260409020548111156104c55760405162461bcd60e51b8152602060048201526014602482015273496e73756666696369656e742062616c616e636560601b6044820152606401610466565b33600090815260066020526040812080548392906104e49084906110e7565b90915550506001600160a01b03821660009081526006602052604081208054839290610511908490611100565b90915550505050565b3360009081526002602052604090205460ff166105495760405162461bcd60e51b815260040161046690611113565b60408051606081018252600a5480825260006020808401828152848601878152938352600990915293902082518155925160018401805460ff19169115159190911790555190919060028201906105a090826111a5565b509050507fd88e4e4451455bba901361e6a62e5288b8a4f81bb8b86419fd3a536a8fa89184600a54826040516105d7929190611264565b60405180910390a1600a80549060006105ef83611285565b919050555050565b3360009081526001602052604090205460ff166106265760405162461bcd60e51b81526004016104669061129e565b6000818152600960205260409020600181015460ff16156106815760405162461bcd60e51b81526020600482015260156024820152744c617720697320616c72656164792061637469766560581b6044820152606401610466565b6001818101805460ff191690911790556040518281527fdf286d06678537472a46d4e7b15a4f08c692f31d18df1b446f36bd35be122c63906020015b60405180910390a15050565b600960205260009081526040902080546001820154600283018054929360ff909216926106f590611053565b80601f016020809104026020016040519081016040528092919081815260200182805461072190611053565b801561076e5780601f106107435761010080835404028352916020019161076e565b820191906000526020600020905b81548152906001019060200180831161075157829003601f168201915b5050505050905083565b3360009081526002602052604090205460ff166107a75760405162461bcd60e51b815260040161046690611113565b6001600160a01b03811660009081526003602052604090205460ff1661080f5760405162461bcd60e51b815260206004820152601e60248201527f5461726765742061646472657373206973206e6f742061206d656d62657200006044820152606401610466565b6001600160a01b0381166000818152600360209081526040808320805460ff19169055600682528083209290925590519182527ff5002557509a1bb82b30f2c66eca02084534f87dd1e4c7f3c91739133e50a05b91015b60405180910390a150565b3360009081526003602052604090205460ff166108a05760405162461bcd60e51b81526004016104669061108d565b6040518060a00160405280600754815260200182815260200160008152602001600060028111156108d3576108d3610e7c565b815233602091820152600754600090815260088252604090208251815590820151600182019061090390826111a5565b506040820151816002015560608201518160030160006101000a81548160ff0219169083600281111561093857610938610e7c565b021790555060809190910151600390910180546001600160a01b0390921661010002610100600160a81b03199092169190911790556007546040517fc8c078bfee58e5822588f08b4509ed1eb5058e03f666cca84dd2d44bf5c288a8916109a291849033906112e2565b60405180910390a1600780549060006105ef83611285565b3360009081526002602052604090205460ff166109e95760405162461bcd60e51b815260040161046690611113565b600081815260086020526040812090600382015460ff166002811115610a1157610a11610e7c565b14610a5e5760405162461bcd60e51b815260206004820152601f60248201527f50726f706f73616c206973206e6f74206f70656e20666f7220766f74696e67006044820152606401610466565b600281018054906000610a7083611285565b9190505550600a600454610a849190611313565b816002015410610a9e5760038101805460ff191660011790555b604080518381523360208201527f34647120636ce03d739347e28e9d1bdd34fd03d066ae60439fb1be2721ad16cd91016106bd565b6000546001600160a01b03163314610b385760405162461bcd60e51b815260206004820152602260248201527f4f6e6c792061646d696e2063616e20706572666f726d2074686973206163746960448201526137b760f11b6064820152608401610466565b6000818152600960205260409020600181015460ff16610b925760405162461bcd60e51b81526020600482015260156024820152744c6177206973206e6f74207965742061637469766560581b6044820152606401610466565b5050565b3360009081526001602052604090205460ff16610bc55760405162461bcd60e51b81526004016104669061129e565b6000818152600960205260409020600181015460ff16610c1b5760405162461bcd60e51b81526020600482015260116024820152704c6177206973206e6f742061637469766560781b6044820152606401610466565b60018101805460ff191690556040518281527f106f08f91ff2a747b4db955334543f63661e2c557dc49b1fc41c24e15e6d85d0906020016106bd565b3360009081526003602052604090205460ff1615610cb05760405162461bcd60e51b81526020600482015260166024820152752cb7ba9030b9329039ba34b63610309036b2b6b132b960511b6044820152606401610466565b565b600454336000908152600660205260409020541015610d225760405162461bcd60e51b815260206004820152602660248201527f4e6f7420656e6f756768206167436f696e7320746f20636c61696d207768616c6044820152656520726f6c6560d01b6064820152608401610466565b336000908152600260205260409020805460ff19166001179055565b3360009081526001602052604090205460ff16610d6d5760405162461bcd60e51b81526004016104669061129e565b6001600160a01b03811660009081526003602052604090205460ff1615610dc95760405162461bcd60e51b815260206004820152601060248201526f20b63932b0b23c90309036b2b6b132b960811b6044820152606401610466565b6001600160a01b038116600081815260036020908152604091829020805460ff1916600117905590519182527f0640cab53d2509a48316202f2cee0260d4c6f658c8a22b6f734627bfaf1c8e0a9101610866565b600060208284031215610e2f57600080fd5b5035919050565b6000815180845260005b81811015610e5c57602081850181015186830182015201610e40565b506000602082860101526020601f19601f83011685010191505092915050565b634e487b7160e01b600052602160045260246000fd5b85815260a060208201526000610eab60a0830187610e36565b905084604083015260038410610ed157634e487b7160e01b600052602160045260246000fd5b60608201939093526001600160a01b03919091166080909101529392505050565b80356001600160a01b0381168114610f0957600080fd5b919050565b600060208284031215610f2057600080fd5b610f2982610ef2565b9392505050565b60008060408385031215610f4357600080fd5b610f4c83610ef2565b946020939093013593505050565b634e487b7160e01b600052604160045260246000fd5b600060208284031215610f8257600080fd5b813567ffffffffffffffff811115610f9957600080fd5b8201601f81018413610faa57600080fd5b803567ffffffffffffffff811115610fc457610fc4610f5a565b604051601f8201601f19908116603f0116810167ffffffffffffffff81118282101715610ff357610ff3610f5a565b60405281815282820160200186101561100b57600080fd5b81602084016020830137600091810160200191909152949350505050565b838152821515602082015260606040820152600061104a6060830184610e36565b95945050505050565b600181811c9082168061106757607f821691505b60208210810361108757634e487b7160e01b600052602260045260246000fd5b50919050565b60208082526024908201527f4f6e6c79206d656d626572732063616e20706572666f726d20746869732061636040820152633a34b7b760e11b606082015260800190565b634e487b7160e01b600052601160045260246000fd5b818103818111156110fa576110fa6110d1565b92915050565b808201808211156110fa576110fa6110d1565b60208082526023908201527f4f6e6c79207768616c65732063616e20706572666f726d20746869732061637460408201526234b7b760e91b606082015260800190565b601f8211156111a057806000526020600020601f840160051c8101602085101561117d5750805b601f840160051c820191505b8181101561119d5760008155600101611189565b50505b505050565b815167ffffffffffffffff8111156111bf576111bf610f5a565b6111d3816111cd8454611053565b84611156565b6020601f82116001811461120757600083156111ef5750848201515b600019600385901b1c1916600184901b17845561119d565b600084815260208120601f198516915b828110156112375787850151825560209485019460019092019101611217565b50848210156112555786840151600019600387901b60f8161c191681555b50505050600190811b01905550565b82815260406020820152600061127d6040830184610e36565b949350505050565b600060018201611297576112976110d1565b5060010190565b60208082526024908201527f4f6e6c792073656e696f72732063616e20706572666f726d20746869732061636040820152633a34b7b760e11b606082015260800190565b8381526060602082015260006112fb6060830185610e36565b905060018060a01b0383166040830152949350505050565b60008261133057634e487b7160e01b600052601260045260246000fd5b50049056fea2646970667358221220d0615ecf4b7840a3b647539e08c44ffa1077ecdf727a5c5bb2936b7c4af9f33664736f6c634300081b0033",
    "linkReferences": {},
    "deployedLinkReferences": {}
}